:100000000C942A020C9447020C9447020C94AC1CEA
:100010000C9447020C9447020C9447020C9447023C
:100020000C9447020C9447020C94F8170C94B417E4
:100030000C94F5180C9447020C9447020C94470258
:100040000C9447020C9447020C9447020C9447020C
:100050000C9447020C94D1180C9447020C9447025C
:100060000C9447020C9447020C9447020C944702EC
:100070000C9447020C9447020C9447020C944702DC
:100080000C9447020C9447020C9447020C944702CC
:100090000C9447020C9447020C9447020C944702BC
:1000A0000C9447020C9447020C9447022B00140056
:1000B0001A000800150017002A00040016000700A7
:1000C00009000A00E1001D001B00060019000500E0
:1000D00000000000000023522844E300007C1300CD
:1000E00012000C0018001C00340033450F000E00F5
:1000F0000D000B00E500380037003600100011003D
:1001000000000000000000072C002A042B001E0045
:100110001F00200021002200E0000000000000007D
:1001200000000000E10000000000000000000000EE
:10013000000000000000E30001002C002A0027005E
:100140002600250024002300000000004F0052007C
:1001500051005000000000000000000000000000FE
:10016000000000000000E60023522800010001000A
:100170000100010001000100010001000100010077
:100180000100010001000100010001000100010067
:10019000000000000000010001000100010001005A
:1001A0000100010001000100010001000100010047
:1001B0000100010001000100010001000100010037
:1001C000000000000000010001000100000000002C
:1001D000000052000000000000000000500051002C
:1001E0004F000000000000000000000000000000C0
:1001F000000000000000000000000000007C000083
:100200000000520000000000000000004F045100F8
:10021000500400000000000000000000000000008A
:1002200000000000000000000000290000000000A5
:10023000000000000000000000001E001F00200061
:10024000210022000000000000000000000000006B
:10025000000000000000000000000000000000009E
:10026000000000000000000000002700260025001C
:100270002400230000000000000000000000000037
:1002800000000000000000000000000000001E024E
:100290001F022F023002310200000000210226025C
:1002A000270235000000220223022F003000350211
:1002B000000000000000000000000000007C0000C2
:1002C00031002D002E0200000000000033022D023C
:1002D0002E00000000000000000034003402000086
:1002E00000000000000000000000000005010902FD
:1002F000A10185020901A1000509190129081500BC
:100300002501950875018102050109300931158122
:10031000257F95027508810609381581257F95018D
:1003200075088106050C0A38021581257F9501752F
:10033000088106C0C005010980A101850319012AB1
:10034000B700150126B700950175108100C0050C96
:100350000901A101850419012AA002150126A002A4
:10036000950175108100C005010906A101850605EA
:100370000719E029E7150025019508750181020597
:1003800007190029EF1500250195F0750181020577
:1003900008190129059505750191029501750391CB
:1003A00001C005010906A101050719E029E71500AB
:1003B00025019508750181029501750881010507E0
:1003C000190029FF150026FF009506750881000514
:1003D000081901290595057501910295017503918B
:1003E00001C009023B00020100A0FA09040000015B
:1003F00003010100092111010001224000070581CC
:100400000308000109040100010300000009211193
:1004100001000122B600070582032000011201003D
:100420000200000008534601000100010200010C17
:100430000343006F0072006E006500000010036649
:10044000006F006F007300740061006E0000000414
:100450000309040011241FBECFEFDAE0DEBFCDBFD9
:1004600011E0A0E0B1E0ECE8FDE302C005900D92E0
:10047000A836B107D9F722E0A8E6B1E001C01D9285
:10048000A239B207E1F70E941C190C94851E0C9446
:100490000000FC01AC014C5F5F4F8FEF91E32191B5
:1004A000822728E030E087FF09C0880F8927215084
:1004B0003109C9F7E417F50791F70895880FF7CFC9
:1004C000E8EDF0E080818E7F80831092E200109250
:1004D000DA001092E100A0EEB0E08C9181608C9384
:1004E00080818F77808319BCA7EDB0E08C918E7FDF
:1004F0008C9380818F7E808310926002089520917A
:10050000E4003091E50095E6A9012091EC00822FEE
:10051000817020FF06C08091E80080FF06C080E067
:1005200008952091E80022FD1AC080918502882359
:1005300089F0853089F08091EB0085FD0FC0209116
:10054000E4003091E50042175307F9F29150E1F6CB
:1005500084E0089582E0089583E0089581E008959D
:100560008091870287FF13C08091E80082FF06C058
:100570008091E8008B778093E80004C08091850229
:100580008111F2CF0895809185028823D9F380915B
:10059000E80080FFF8CF8091E8008E77ECCF982FAD
:1005A0009093E900242F762F50E0891731F0709155
:1005B000EC002091ED005091F00021FD07C09F5FFD
:1005C000973071F78093E90081E008953091EB0056
:1005D0003E7F3093EB003091ED003D7F3093ED0096
:1005E0003091EB0031603093EB007093EC0020937E
:1005F000ED005093F0002091EE0027FDE0CF80E069
:100600000895B0E0A0E0E7E0F3E00C94D21DC8ED5F
:10061000D0E088818F7E8883E7EDF0E08081816083
:10062000808384E082BF81E08093600288818E7F36
:10063000888302EE10E0F80110821092DA0081EE59
:10064000C82ED12CF601108288818F77888388810B
:100650008068888388818F7D888319BC1092850289
:1006600010928602109284021092830290EEE92E7C
:10067000F12CF70180818B7F808388818160888362
:1006800042E060E080E00E94CF02F60180818E7F30
:100690008083F8018081816080838081886080838D
:1006A000F70180818E7F8083888180618883CDB7C8
:1006B000DEB7E8E00C94EE1DFC0180918D02909174
:1006C0008E0286179707A0F06115710529F49091A5
:1006D000E8009E779093E80090E06115710551F471
:1006E000911108C08091E80082FF34C080E0089535
:1006F000BC01F2CF809185028823C1F18530C1F120
:100700008091E80083FD30C08091E80082FDEACF4F
:100710008091E80080FFE1CF8091F3002091F2000A
:10072000382F6115710519F02830310558F091E026
:100730002830310509F090E02091E8002E772093D1
:10074000E800CBCF81918093F100615071092F5F58
:100750003F4FE7CF80918502882341F0853041F0FB
:100760008091E80083FFBECF81E0089582E0089584
:1007700083E0089580916202089587E797E7909358
:1007800001088093000888E19AE00FB6F894A895D4
:10079000809360000FBE90936000FFCF9C014FB725
:1007A000F89480915A0290915B02A0915C02B09102
:1007B0005D024FBF821B930B08952FB7F894609191
:1007C0005A0270915B0280915C0290915D022FBF92
:1007D00008952FB7F89480915A0290915B02A091EE
:1007E0005C02B0915D022FBF089520912101222368
:1007F000C9F020915E0227FF15C0E62FE695E69529
:10080000E695EE31D8F4E80FF92FF11D677021E07D
:1008100030E001C0220F6A95EAF7209582812823F3
:1008200022830895FC01329608962191621303C039
:10083000DF0111971C92E817F907B9F70895209185
:1008400021012223C1F020915E0227FF14C0E62F70
:10085000E695E695E695EE31F8F4E80FF92FF11DEF
:10086000677021E030E001C0220F6A95EAF78281CB
:10087000822B82830895FC0132962FEF30E0419164
:10088000641751F02F3F19F4411101C0232F3F5F2E
:100890003630A9F72F3F09F40895820F911D27FDE7
:1008A0009A95FC0162830895A3E0B0E0EAE5F4E0E4
:1008B0000C94D81D209157023091580228173907FF
:1008C000A1F09093580280935702E0915502F09165
:1008D0005602309751F024E029839B838A83068057
:1008E000F781E02DCE01019609952396E2E00C9464
:1008F000F41DA3E0B0E0EFE7F4E00C94D81D2091E4
:1009000053023091540228173907A1F090935402F2
:1009100080935302E0915502F0915602309751F0C6
:1009200023E029839B838A830680F781E02DCE0113
:10093000019609952396E2E00C94F41D0E94E903C8
:100940009C0190914F0280915002982B21F030939E
:100950004C0220934B029091510280915202982BAD
:1009600021F030934A0220934902E0915502F09120
:100970005602309749F082E080934D020480F58161
:10098000E02D8DE492E0099508958091480280FD64
:1009900016C081FD16C082FD16C0809147028823D3
:1009A000A1F0883280F428E0829FC001112468E21F
:1009B00070E00E94FF1D862F672B39F0089582E0BA
:1009C000089584E0089588E0089581E00895809175
:1009D000480280FD14C081FD14C082FD16C08091C4
:1009E0004602882381F08E3180F420E5829FC00189
:1009F00011246EE170E00E94FF1D862F089584E1AE
:100A0000089588E2089588E0089580E5089580E0DB
:100A10000895F894E82FE295EF70F0E031A1282FC7
:100A20002F7081E090E001C0880F2A95EAF7982F97
:100A30009095932391A392A1892B82A378940895F2
:100A400090915E0292FF06C0282F28712830F9F499
:100A5000877F846093FF06C0282F28712831F1F426
:100A6000877E846120915F0220FF06C0382F387195
:100A70003830D9F4877F816021FF06C0282F287184
:100A80002831D1F4877E816194FD877E0895282FD7
:100A900024712430F9F68B7F8860DCCF282F2471F5
:100AA000243101F78B7E8861DDCF382F31713130F1
:100AB00019F78E7F8860E0CF282F2171213121F72F
:100AC0008E7E8861E1CF82389105B9F1B0F481332F
:100AD000910509F47DC048F48932910509F46DC08F
:100AE0008A32910509F47BC008958533910509F494
:100AF0005FC08933910509F10895833E9105D9F1CD
:100B000038F4803E910529F1823E910579F10895EE
:100B1000863E9105D9F1873E910509F43EC0843E99
:100B2000910541F520915F0221FF24C080915E0272
:100B300084FD19C087EE90E0089520915E02237035
:100B400009F05AC020915F0223FF14C089E290E0AF
:100B5000089520915E0220FD38C030915F0230FF81
:100B600009C024FF43C090E080E0089520915E0218
:100B700022FDF7CF089520915E0222FD3AC0309108
:100B80005F0230FD39C024FFF5CFEDCF20915E022A
:100B900023FFF0CF24FDE7CFCDCF20915E0223FDD0
:100BA0002EC030915F0231FFEECF84EE90E00895C9
:100BB00020915E0225FFDECFC9CF20915E0225FD88
:100BC00021C020915F0223FFD5CF89E390E0D2CFEF
:100BD00020915E0226FFCECF8AE290E00895209118
:100BE0005E0226FFC7CF81E390E0089583EE90E098
:100BF000089582EE90E0089580EE90E0089586EEEC
:100C000090E0089585E390E00895972F7830B8F448
:100C10006630A8F48630B0F470E026E0929F600D54
:100C2000711D1124FB0190E3899FE00DF11D11243A
:100C3000EE0FFF1FE455FF4F85919491089580E0DA
:100C400090E0089581E0FCCF1F93CF93DF930E9443
:100C50006305EC01C11580E5D807F0F5C11580E406
:100C6000D80708F09CC0C03ED10520F5CD3CD10589
:100C700008F082C0C83AD10578F4C53AD10508F029
:100C800073C0C130D10519F1209709F1C430D105E5
:100C9000F0F4D0E0C0E01BC0C13CD105D0F7C85A89
:100CA000D0E0CC0FDD1FCB5DDE4F0990D881C02D89
:100CB000D4640DC0C11580E2D80708F0D1C0C115B9
:100CC00081E0D80708F05AC0C83ED10510F7CE0120
:100CD000DF91CF911F910895C03682E5D80718F5AE
:100CE000C03482E5D80708F06BC0C03282E5D8076F
:100CF00008F05FC0C11582E5D80708F497C02C2F13
:100D00002695269580E2289F900111248C2F8370D0
:100D1000C1E0D0E002C0CC0FDD1F8A95E2F7C22B04
:100D2000D32BDD68D4CFC03A82E5D80760F4C03851
:100D300082E5D80708F459C0CF71D0E0DC2FCC276A
:100D4000C46FD06AC4CFC03C82E5D80708F462C043
:100D5000C03E82E5D80708F09CCFDC2FCC27CC27FB
:100D6000DF71C06FD06AB3CFC55AD0E0CE5DDE4F21
:100D7000C881D0E0D064ABCFD065A9CF8D2F0E94C1
:100D80002005182FCE0199270E946305C12FD0E0BE
:100D9000DC2FCC27CC27DF71C82BD92B98CFCE01E5
:100DA00099270E946305CC27DF70C82BD92BD06A06
:100DB0008ECFCF71D0E0DC2FCC27C16FD06A87CF28
:100DC0002C2F26952695277080E2289F90011124CC
:100DD0008C2F8370C1E0D0E002C0CC0FDD1F8A955C
:100DE000E2F7C22BD32BDC6872CF2C2F26952695E9
:100DF000277080E2289F900111248C2F8370C1E01E
:100E0000D0E002C0CC0FDD1F8A95E2F7C22BD32BB6
:100E1000DA685DCF8C2F8F710E942005C82FD0E03B
:100E2000DC2FCC27CC27DF71D06251CF8C2F8F7174
:100E30000E94200555E0D695C7955A95E1F7CF70E9
:100E4000D0E0DC2FCC27282F30E084FF05C044E021
:100E5000220F331F4A95E1F7C22BD32BD06937CF2E
:100E60008D2F8F710E942005182FCE0199270E9487
:100E70006305C12FD0E0DC2FCC27CC27DF71C82B36
:100E8000D92BD2CF8091FE0181111092FE010895DD
:100E900080959091FD0198239093FD0108952091F4
:100EA000DA019091A90156E0291302C080E008956B
:100EB00030E0529FF001539FF00D1124E655FE4F94
:100EC0007181761306C07081781303C07281741328
:100ED00004C02F5F3F4F2770E7CF81E008958091D6
:100EE000DA019091A901981301C008958F5F87706E
:100EF000FACFB0E0A0E0EFE7F7E00C94D11D7C0161
:100F000000913202109133028091300290913102AF
:100F1000082B192BCFE0D0E0CC24C394D12CBC2ECD
:100F2000C6010C2E02C0880F991F0A94E2F7802395
:100F30009123892B49F4219790F7B12C8B2DCDB7B4
:100F4000DEB7E9E00C94ED1DB7018C2F0E94050679
:100F50000E942406019779F3F1CFCF93DF93EC0140
:100F60000E947907BE010E9405060E942406DF91B7
:100F7000CF910895983078F5863068F5E82FF0E045
:100F800086E0989FE00DF11D11249E2F977083E05D
:100F9000F695E7958A95E1F7EE0FFF1FEE0FFF1F1D
:100FA000E557FE4F50E040E080E0219130E0092E0F
:100FB00002C0369527950A94E2F721703327042E54
:100FC00001C0220F0A94EAF7822B4F5F5F4F443033
:100FD000510559F7089580E00895983098F58630C6
:100FE00088F5E82FF0E086E0989FE00DF11D1124D0
:100FF0008E2F877041E001C0440F8A95EAF783E0A5
:10100000F695E7958A95E1F7EE0FFF1FEE0FFF1FAC
:10101000E557FE4F30E020E070E05191DF0111977D
:10102000CB01022E02C0969587950A94E2F7817053
:1010300081958527842385278C932F5F3F4F24300C
:10104000310559F708959093330280933202089541
:1010500021E030E002C0220F331F8A95E2F720958D
:1010600030958091320290913302822393230E9423
:10107000230808959091DB01809589238093DB01FB
:10108000282F277091F4282F082E000C330B92176D
:10109000130659F090915F0292FF07C085958595E0
:1010A00085950E9428081092DB01089521E030E028
:1010B00002C0220F331F8A95E2F78091320290918D
:1010C0003302822B932B0E942308089590933102C0
:1010D000809330020895FC0183819481892B29F04B
:1010E0008081918189238F3F51F480E00895843F6E
:1010F000E1F717C0883EA8F0813FB9F712C08081A0
:1011000091810E94AD0792959F70963099F358F4A3
:10111000925F9F70923048F7803F19F040F7883E09
:1011200020F781E008959A5FF4CF662309F45DC04B
:101130008D3C41F40E94E7048195809350020E9407
:101140009E0408958E3C19F40E94E704F6CF8F3C6C
:1011500031F40E94E704819580934F02F0CF803DE7
:1011600019F40E94E704F8CF893D29F40E94C504D0
:1011700080935102E4CF8A3D21F40E94C5048195F9
:10118000F7CF8B3D31F40E94C504819580935202C4
:10119000D6CF8C3D19F40E94C504F8CF9FE2980F7A
:1011A000983070F4815D990B21E030E001C0220F8E
:1011B0008A95EAF780914E02822B80934E02BFCF30
:1011C0008D3D31F480914802816080934802B7CF11
:1011D0008E3D21F4809148028260F7CF8F3D09F067
:1011E000AECF809148028460F0CF40914F028D3C99
:1011F00059F48091500287FF0DC0109250024111A6
:101200000BC01092460208C08E3C81F480915002BF
:1012100018169CF3442381F0809151029091520260
:10122000892B09F08CCF1092470289CF8F3C49F46B
:1012300047FFF0CF10924F02809150028111ECCF06
:10124000E0CF803D19F41416ACF3E4CF9091510235
:10125000893D29F41916F4F610925102DBCF8A3D2C
:1012600019F497FFD7CFF8CF909152028B3D29F414
:1012700097FFD0CF10925202CDCF8C3D19F41916A2
:10128000CCF3C8CF9FE2980F983090F4815D990B12
:1012900021E030E0B90102C0660F771F8A95E2F7BE
:1012A000CB01809590914E02892380934E02B2CF5C
:1012B0008D3D31F4809148028E7F80934802AACF01
:1012C0008E3D21F4809148028D7FF7CF8F3D09F04C
:1012D000A1CF809148028B7FF0CF0F931F93CF93C4
:1012E000DF938B01EA0190918502943061F5809340
:1012F000E9008FEF9091E800815095FD06C095EDD3
:101300009A95F1F700008111F5CF8091E80085FFF3
:101310001AC00E947F02811111C08091E80085FDF2
:1013200006C08091E8008E778093E800F2CFF80144
:1013300081918F018093F100219779F78091E800E6
:101340008E778093E800DF91CF911F910F910895E0
:1013500043E050E0BC0182E00E946D09089546E040
:1013600050E0BC0182E00E946D090895CF93DF93A5
:10137000EC0180912101811111C048E050E0BE01D3
:1013800081E00E946D0980E2FE01A3E6B2E00190D7
:101390000D928A95E1F7DF91CF91089580915E02D9
:1013A00087FF05C040E282E050E0BE01EACF48E09E
:1013B00081E0FACFB0E0A0E0E0EEF9E00C94D01DBF
:1013C0007C015B016A018091210201E010E08A301A
:1013D00010F40AE010E0C1E0D0E0B501C701F60169
:1013E0000995811104C021960C171D072CF4CDB767
:1013F000DEB7EAE00C94EC1DCC9F9001CD9F300D40
:10140000300D112490E080E045E34A95F1F70000AB
:10141000019682179307C1F7E0CF80910B028111EB
:1014200010C08091D80080618093D8008AE18A95AD
:10143000F1F700C08091D90080FF0AC081E080935D
:101440000B0281E090910B02913009F080E0089549
:1014500082E080930B020E94600210928502F1CF1D
:101460000E940D0A882359F0E0915502F09156022E
:10147000309729F00190F081E02D0995089580E0E2
:1014800008958091FD019091FC01892B80936A0160
:101490009091FE019923A1F0892B80936A0180919C
:1014A00021018823E1F180915E0287FF38C08EE13F
:1014B000ECE6F1E090E08150A0F591110E94420726
:1014C00040E250E06CED71E08AE691E00E946F1E10
:1014D000892B21F180E2EAE6F1E0ACEDB1E0019088
:1014E0000D928A95E1F7E0915502F09156023097FE
:1014F000A9F080912101882359F080915E0287FF35
:1015000007C080916A0180936B0186E080936A0135
:101510000280F381E02D8AE691E00995089586E046
:10152000C7CF2191222339F29F5FC5CF882321F0B5
:101530000E9448070E94410A0895882339F090913B
:10154000FD01982B9093FD010E94410A0895882384
:1015500099F19CEF980F913A40F4682F8AE691E058
:101560000E94F5030E94410A089590E2980F983076
:1015700050F4877091E001C0990F8A95EAF7892F9E
:101580000E944807EFCF9BE5980F933028F490E036
:1015900080E00E947904089598E5980F9B3128F423
:1015A00090E080E00E945404089593E3980F9331F3
:1015B00018F460E00E9495080895CF93C82F8823FF
:1015C000D1F18CEF8C0F813AC0F5809121018823F5
:1015D00011F180915E0287FF1EC0EC2FE695E69523
:1015E000E695F0E0E659FE4F828190E04C2F47707F
:1015F00021E030E002C0220F331F4A95E2F7822338
:101600009323892B89F06C2F8AE691E00E94F503E1
:101610000E94410A09C0ECE6F1E08191C81799F3F4
:1016200081E0E237F807C9F76C2F8AE691E00E9463
:101630001F040E94410ACF91089580E28C0F8830E8
:1016400068F4C77021E030E001C0220FCA95EAF7C4
:101650008091FD01822B8093FD01EBCFEBE5EC0F38
:10166000E33040F4F0E0EE5DFE4F808190E00E94B8
:101670007904E1CFE8E5EC0FEB3150F4F0E0EE0F48
:10168000FF1FEB5DFE4F808191810E945404D3CFF8
:1016900083E38C0F833178F661E08C2F0E949508EC
:1016A000CACF0F931F93CF93DF93C62FD42F022F50
:1016B000FC0182818823A9F0609391020E94E903D2
:1016C0009093900280938F02C77081E001C0880FD1
:1016D000CA95EAF70E949D0ADF91CF911F910F9161
:1016E000089580919102681335C080918F02909186
:1016F00090020E94CE03883C910560F510E21D0F18
:10170000CD17B9F080E28C0F883040F4C77081E0CB
:1017100001C0880FCA95EAF70E94960A183048F46B
:1017200081E09D2F977001C0880F9A95EAF70E947B
:101730009D0A802F0E94DD0A802F0E94A70A183080
:1017400058F6D77081E001C0880FDA95EAF70E9459
:10175000960AC2CFC77081E001C0880FCA95EAF728
:10176000F6CF90915F0292FB222720F9281779F09B
:1017700080FB92F990935F0260915E0270915F022C
:1017800084E090E00E94591E82E00E943A08089589
:101790001092FD0180912101ECE6F1E0882329F10E
:1017A00080915E0287FF21C08EE1DF011D928A9544
:1017B000E9F790E080E00E94790490E080E00E94E8
:1017C00054041092FC010E94410A86E0EDE4F2E02C
:1017D000DF011D928A95E9F71092460210924702A6
:1017E000109248020E949E04089586E0DECFAAE28D
:1017F000B0E0EDEFFBE00C94D71D87E892E020917C
:10180000F100FC012193CF01F2E08F389F07B9F777
:1018100080918802833009F470C0B8F4813009F4F3
:1018200047C0823009F4B1C08091E80083FF7EC2D6
:1018300080918702909188029A3008F077C2E92F50
:10184000F0E0E957F14E0C94131E8A3009F48CC075
:101850008B3009F46FC0893039F78091870281326B
:1018600019F780918B0290918C020297E8F6809193
:10187000E800877F8093E8008091E80082FF38C00D
:101880009091F3008091F200029731F48091F10081
:10189000813011F0863021F48091F1008093620252
:1018A0008091E8008B778093E8000E94B002BCCF63
:1018B00080918702813A09F0B7CF8091E800877F55
:1018C0008093E80080918B0290918C02892B61F4C7
:1018D00060E283E692E070E00E945C038091E800A1
:1018E0008B778093E800A0CF60E090E080E0F3CFBA
:1018F000809185028111C0CF97CF80918702813A74
:1019000009F092CF80918B0290918C02892B09F083
:101910008BCF8091E800877F8093E8008091E8007A
:1019200080FFFCCF809121018093F1008091E8003D
:101930008E77B9CF80918702813209F075CF80917F
:101940008B0290918C02892B09F06ECF8091E80078
:10195000877F8093E8000E94B00280918902809383
:1019600021010E94C80B60CF80918702813209F06B
:101970005BCF8091E800877F8093E8000E94B002EF
:1019800080918A02809361024FCF80918702813AD1
:1019900009F04ACF8091E800877F8093E80080912A
:1019A000E80080FFFCCF80916102BECF803899F0C3
:1019B000823809F0BBC180918B028F70873008F0AC
:1019C000B5C18093E9008091EB0085FB882780F901
:1019D0001092E90006C080918302909184029111D7
:1019E00082609091E800977F9093E8008093F100E7
:1019F0001092F1008091E8008E7794C1882309F459
:101A000082C1823009F092C180918902811185C121
:101A100080918B028F702FEF280F263008F086C13F
:101A20008093E9002091EB0020FF77C1933031F4DF
:101A30008091EB0080628093EB006FC19091EB008E
:101A400090619093EB0021E030E001C0220F8A9575
:101A5000EAF72093EA001092EA008091EB00886098
:101A6000EACF811163C1109189021F778091E30051
:101A70008078812B8093E3008091E800877F8093BA
:101A8000E8000E94B0028091E80080FFFCCF8091C6
:101A9000E30080688093E30082E0111183E080938B
:101AA000850244C18058823008F040C1809189028B
:101AB00090918A028C3D23E09207A1F583E08A830E
:101AC0008AE289834FB7F894DE01139620E03EE066
:101AD00051E2E32FF0E050935700E49120FF03C060
:101AE000E295EF703F5FEF708E2F90E0EA30C0F02C
:101AF000C7968D939D932F5F243159F74FBF8091E7
:101B0000E800877F8093E8006AE270E0CE010196EA
:101B10000E945C038091E8008B778093E80006C107
:101B2000C096E7CF40918B0250918C02292F33272A
:101B30002330310509F444C078F52130310509F42A
:101B40006FC08BE390E0E2EEF3E02230310509F064
:101B5000EDC02091E800277F2093E80020918D02BE
:101B600030918E028217930708F49C0140E0211502
:101B7000310509F064C0411162C08091E80082FD26
:101B8000C9CF80918502882329F2853019F280918E
:101B9000E80083FFF2CFBECF21323105A9F1223216
:101BA000310509F0C3C04115510509F443C0413066
:101BB000510509F0BBC086EB90E0ECEEF2E0C9CF36
:101BC000992781309105C1F0009759F0029709F0EB
:101BD000ADC0EFE2F4E0E4918E2F90E0EFE2F4E0AC
:101BE00007C0EFE4F4E0E4918E2F90E0EFE4F4E03E
:101BF000009709F49BC0ADCFEDE3F4E0E4918E2FA4
:101C000090E0EDE3F4E0F4CF4115510571F041307F
:101C1000510509F08BC089E090E0EDE0F4E099CF48
:101C200082E190E0EDE1F4E094CF89E090E0E4EF30
:101C3000F3E08FCF80E490E0E2EAF3E08ACF809196
:101C40008502882309F466CF853009F463CF80913B
:101C5000E80083FD5FCF8091E80082FD8ECF809108
:101C6000E80080FF84CF9091F3008091F20021156D
:101C7000310519F08830910550F041E0089709F0DE
:101C800040E08091E8008E778093E80070CF449127
:101C90004093F1003196215031090196E8CF803808
:101CA00009F044C08091E800877F8093E80080912C
:101CB00086028093F1009ECE811138C01091890276
:101CC0001230A0F58091E800877F8093E8001093A0
:101CD00086020E94B002112311F084E005C08091B9
:101CE000E30087FDFACF81E08093850242E061EC5A
:101CF00081E00E94CF0242E261EC82E00E94CF02CA
:101D00008091850213C080918902813079F481E04D
:101D1000933009F080E0809384021092E900809172
:101D2000E800877F8093E8000E94B0028091E8007D
:101D300083FF0AC08091E800877F8093E80080914C
:101D4000EB0080628093EB00AA96E3E00C94F31D15
:101D50000E94C80B2FEF84E39CE02150804090400C
:101D6000E1F700C0000088E19AE00FB6F894A8956A
:101D7000809360000FBE90936000FFCFA5E0B0E0BD
:101D8000E4ECFEE00C94CE1D7C01FC018381948187
:101D9000892B31F08081918189238F3F09F0A3C382
:101DA0002596ECE00C94EA1D0E947907182F682F05
:101DB00089819A810E94ED0769817A81812F0E9431
:101DC00005068C01FC01E851FC47E730F10588F578
:101DD000EF56F14E0C94131E26E241EE61EEC70160
:101DE0000E94510B8091DB018770D1F2F701828153
:101DF0008823B1F280915F0282FFD2CF82E00E94FD
:101E00003A08CECF27E245EE65EEE9CF26E241EE75
:101E100060EEE5CF27E245EE64EEE1CF26E241EE4B
:101E200062EEDDCF27E245EE66EED9CF28E241E053
:101E3000EBCFF7018281882309F47CC310929102D1
:101E4000C8019057839708F05FC384E090E00E9438
:101E5000351E90935F0280935E02F801E150F047D7
:101E6000E232F10520F4E856F14E0C94131E8091F5
:101E70005E02816080935E0295C080915F028860FF
:101E800080935F028FC080915E028260F3CF809169
:101E90005E028460EFCF80915E028860EBCF80911C
:101EA0005F028160EDCF80915F028260E9CF809117
:101EB0005E028061DFCF80915E028062DBCF809125
:101EC0005E028064D7CF0E94C80B80915E0280685A
:101ED000D1CF80915E028C60CDCF80915F02836014
:101EE000CFCF80915E028E7FC5CF80915F02877FCA
:101EF000C7CF80915E028D7FBDCF80915E028B7FC8
:101F0000B9CF80915E02877FB5CF80915F028E7FCF
:101F1000B7CF80915F028D7FB3CF80915E028F7EBD
:101F2000A9CF80915E028F7DA5CF80915E028F7BCD
:101F3000A1CF0E94C80B80915E028F779BCF8091CA
:101F40005E02837F97CF80915F028C7F99CF8091D3
:101F50005E0282FB992790F921E0922790FB82F99B
:101F600090FB83F987CF80915F02982F90959170B5
:101F70008E7F892B90FB81F983CF90915E02892F10
:101F80008F7B96FF806476CF0E94C80B90915E0293
:101F9000892F97FB87F980586DCF61E08EE090E044
:101FA0000E943B1E60915E0270915F0284E090E0AF
:101FB0000E94591E0E94C80B15CF60E0EFCF909190
:101FC0005E02892F8F7E94FF806154CF90915E02D4
:101FD000892F8E7F90FF81604DCF90915F02892F76
:101FE000877F93FF88604CCF0E94C80BFFEF24E3EC
:101FF0003CE0F15020403040E1F700C000000E947A
:10200000BD036FEF7FEF90E080E00E94591E0E94B9
:10201000A80E80915F0282FB882780F991E08927D2
:102020000E94B10BF701828100811181882309F49C
:1020300049C0C8010E947907D82E682FC8010E94A4
:10204000ED07B8018D2D0E9405060E9424068C0123
:10205000882EF701D280B580B2943FE0B322809100
:10206000DB018770F1F0AD2CDD20E1F0812F807F66
:10207000803451F080E2800F883098F0B11004C0B5
:10208000812F807E803269F080915F0282FF09C0DB
:1020900082E00E943A088091DB018770AA24A39411
:1020A0008111A12C912E92942FE09222FBE0F91540
:1020B00008F474C0E92DF0E0E654F14E0C94131EC0
:1020C00080E0AECFC8010E94BA07D82EBACF212F28
:1020D0002F70C22E107F19F0C29490EFC922DD201C
:1020E000B9F0CC2069F080E2800F883010F08110C8
:1020F00009C08091FD01C82AC092FD010E94410AD9
:10210000802F4AC08091FC01C82AC092FC01F6CF02
:10211000802F0E94A70ACC2009F440C0005E08303E
:1021200010F0811004C08C2D0E94480706C0C09496
:102130008091FC01C822C092FC010E94410A2EC07D
:10214000312F3F70C32E107F103219F0C29480EFF0
:10215000C822882089F081E0881609F47CC0DD203F
:1021600009F486C0BB2009F47CC0F701858180FF9B
:10217000C7CF8F70858375C020915F0222FD43C059
:10218000DD20D9F1CC2039F08091FD01C82AC09220
:10219000FD010E94410A80E00E94DD0AE92DE8501D
:1021A000FF0B349710F40E94300AAA20A9F0809106
:1021B000DB0180FD11C0F70112828595859585951B
:1021C0000E945608C7010E94BE0E8091DB018595D2
:1021D000859585950E94280885E0F701DE01119616
:1021E00001900D928A95E1F709811A81C8010E9438
:1021F000BA07B8010E940506D3CD80E00E94A70A65
:10220000CC2061F290CFDD20A1F09091FE018C2DC9
:10221000892BB11003C00E949D0AC0CFE1E0BE121D
:10222000FACF22FFBBCF891709F4B8CF8093FE0104
:10223000B5CFB11006C00E9442078C2D0E94960AAD
:10224000ADCFF1E0BF1609F4A9CF8C2D0E94960AFC
:102250000E944207A3CFDD2031F025E02B1508F4C2
:102260009DCF8C2DD8CF34E03B1508F497CFE5CF28
:10227000BB2019F3F9E38F122FC12FEF37EE83E064
:10228000215030408040E1F700C0000025C1812F7F
:1022900086958695837061F0813009F07FCFC80103
:1022A0009370D11002C080E090E00E94540476CF79
:1022B000C8019370D11002C080E090E00E947904C0
:1022C0006DCF6D2D802F0E94950868CF812F837070
:1022D00009F03FC0D11062CF402F4295469547701C
:1022E000440F440F802F8F7090E0042E02C0880F9F
:1022F000991F0A94E2F730E020E004FF09C02FE0C4
:1023000030E002C0220F331F4A95E2F72095309546
:10231000169516951370123099F078F440913002AA
:1023200050913102113039F0822B932B8423952365
:102330000E94660833CF842B952B822B932BF8CFEA
:10234000822B932B209130023091310282279327E8
:10235000EFCF8695DD2011F0812F8170882309F45D
:102360001DCF402F429546954770440F440F802F54
:102370008F7090E0042E02C0880F991F0A94E2F734
:1023800030E020E004FF09C02FE030E002C0220F5F
:10239000331F4A95E2F720953095169516951370E0
:1023A000123099F078F4409132025091330211309A
:1023B00039F0822B932B842395230E942308EECEA1
:1023C000842B952B822B932BF8CF822B932B209150
:1023D00032023091330282279327EFCF1F70DD2026
:1023E00029F0812F0E945608802F15CF802F0E9440
:1023F000960A812F0E942808D1CE802F92EF89164D
:1024000099F1981570F0E0EF8E16D1F0F1EF8F167C
:1024100091F0DD2009F45BC0B11072CE812F8F7175
:1024200027C023EF821639F134EF8312F2CF809167
:102430005F0282FD2EC0812F8F71DD20D9F218C07E
:10244000DD2069F084E08B1508F4A8CE1F7181E0CF
:1024500090E002C0880F991F1A95E2F7B8CF95E077
:102460009B1508F49BCEF2CF812F8F71D110C2CF74
:102470000E94560893CE90E080E0DD2009F49DCFC5
:102480001F7181E090E002C0880F991F1A95E2F752
:1024900094CFDD2089F01F71812F0E945608809112
:1024A0005F0282FF07C0E8E01E9FC0011124836025
:1024B0008093DB01812FDCCF81E00E943A08F1E0BC
:1024C000FB1508F06BCE82E00E943A0867CEBB2075
:1024D00039F0893309F4D1CE802F0E94A70A5ECE4D
:1024E000812F8F7187CF85E0DE01119601900D92CB
:1024F0008A95E1F7F701228189819A81211154CCD3
:102500000E94BA07182F58CC0631FCE71F0709F5BF
:102510008091FD018A7A91E009F490E090938A011C
:1025200069E2811165E38AE691E00E941F040E943E
:10253000410A58CC06312CE7120709F073CD80917F
:102540008A0169E2811165E38AE691E00E94F50360
:10255000EECF03303CE7130709F453CD50F40115D7
:102560009CE7190709F440CD01301C4709F44FCD11
:1025700059CD0B35FCE71F0709F4A2CD0C352CE72C
:10258000120709F446CD0A351C4709F04BCD81E00E
:1025900047CD1F93CF93DF938091A801807F09F0EF
:1025A0004BC08091A501882309F446C08091DA01CF
:1025B000C091A9014091A3015091A4016091A6018D
:1025C0007091A701D42FD52316E0C817A9F190E088
:1025D00061157105A9F1DF3F99F1189FF001199F6D
:1025E000F00D1124DF01A655BE4F11962C911197C5
:1025F000251326C02C91241323C012962C911297D8
:1026000021111EC013962D913C91261B370B283C9F
:102610003105B0F48091A8018F7080618093A8018A
:10262000E155FE4F80818F708061808383EA91E065
:102630000E94BE0E0E946F07DF91CF911F910895F7
:1026400001968770C2CFA1E1B0E0E9E2F3E10C941A
:10265000CE1D8C0185E0F801DE011D9601900D92E2
:102660008A95E1F7F801E28083EA882E81E0982ECE
:102670004091A6015091A7014115510509F430C1BF
:102680009091A3012091A401892F82238F3F09F407
:1026900027C1D080C180A380B480F090A501B5018E
:1026A000641B750BFF2009F4E7C08091A801382F47
:1026B000307F683C710508F0ABC0311178C0FE2C4A
:1026C0002C1114C09D1112C0E11010C08F708061D8
:1026D0008093A801C4010E94BE0E8091A801F80158
:1026E00085838F2D6196ECE00C94EA1DA114B10452
:1026F000C9F18D2D8C218F3FA9F181E08E2580FFBE
:1027000005C04E2D6C2D8D2D0E944F07A114B104D4
:1027100059F18D2D8C218F3F39F181E08E25F82FD5
:10272000F170BF2E80FF39C04E2D6C2D8D2D0E9473
:102730004F07A82E811131C0DD86CE868D859E85FE
:102740000E94AD07292F22952F70243078F49F70B6
:102750002230A8F09923B9F0F8019581907F99F47F
:10276000FA2CBFCF80E0CBCF80E0D9CF2A5F2F708B
:10277000223068F0C8010E94BE0EAB2CF1CF992325
:1027800011F0882369F3805E883050F3F3CF803FE7
:1027900038F3815F833070F7E3CFEE2009F4A1CFE7
:1027A0008091A80181608093A801F12C9ACF2C110F
:1027B00005C09D1103C0EE2009F477C0C8010E9436
:1027C0006B08882309F1EE20F9F08091A80180328E
:1027D00070F02091A3013091A40138872F831986CE
:1027E000BB86AA868C87CE0107960E94BE0E86E025
:1027F000F801A3EAB1E001900D928A95E1F70E94F9
:10280000C912FF24F3946DCFC8010E94BE0EF9CF08
:1028100031110AC083EA91E00E94BE0E86E0F40105
:1028200011928A95E9F7C1CF2C110EC09D110CC0F1
:10283000E1100AC08583C8010E94BE0E86E0F40143
:1028400011928A95E9F74DCFC8010E946B08882341
:10285000D9F2EE20C9F28091A801803240F2209195
:10286000A3013091A4013A8329831B82BD82AC82EB
:102870008E83CE010196B9CF683C7105F8F6FE2C27
:10288000EE2011F22C111EC09D111CC08091A801D8
:1028900080FD0FC0982F907F61F08583903F31F0CD
:1028A000982F907F905F8F70892B8583C8010E943D
:1028B000BE0E86E0F801A3EAB1E001900D928A9580
:1028C000E1F70FCFC8010E946B08811190CF809172
:1028D000A80181608093A801C8010E94BE0E01CFAB
:1028E000EE2009F491CFC8010E946B08F82E8823CE
:1028F00009F48ACF86E0F801A3EAB1E001900D92D5
:102900008A95E1F78091A3019091A4010E94AD07FF
:102910000E94C912E6CEA7E1B0E0E1E9F4E10C942F
:10292000D71D4B8B5C8B6D8B7E8B8F8B61111092C7
:10293000FC011A8A198A85E0FE017396DE011D9654
:1029400001900D928A95E1F786E0FE013D96DE0149
:10295000179601900D928A95E1F7CE0107960E9495
:102960002313811112C086E0FE013796DE01119615
:1029700001900D928A95E1F78A859B85892B29F034
:1029800088859F8189238F3F81F516E08091DA0148
:102990009091A901891317C06796E3E00C94F31D89
:1029A00096E0929FD001939FB00D1124A655BE4F83
:1029B000FE01319601900D929A95E1F78093A9015D
:1029C0000E946F07E2CF819FC001112486559E4F60
:1029D0000E942313882301F38091DA0190E001968D
:1029E000877099278093DA01D1CF2091A90130E037
:1029F000C9010196877099274091DA014817190695
:102A000079F60E94C80B1092A9011092DA0186E0B3
:102A1000E3EAF1E0DF011D928A95E9F7B6CFA5E080
:102A2000B0E0E5E1F5E10C94D61D0E94E9038C01CC
:102A30008091FF019091000280179107A1F08FEF24
:102A400089838A831B820E94E9038160782F9D839A
:102A50008C8349815A816B818D810E948B141093E4
:102A600000020093FF012596E4E00C94F21DA4E01F
:102A7000B0E0EDE3F5E10C94D61D40911D025091BC
:102A80001E0260911F02709120022FB7F89480916E
:102A90005A0290915B02A0915C02B0915D022FBF3F
:102AA000841B950BA60BB70B11E084369105A1058D
:102AB000B10590F10E940D0A882399F10E94DD036F
:102AC0006E5F7F4F8F4F9F4F69837A838B839C8389
:102AD00080911101909112018C5E9D4F40911001E7
:102AE00050E04530510510F044E050E0BE016F5F0A
:102AF0007F4F0E947C1E82E090E00E94521D182FA2
:102B0000882351F00E94DD0360931D0270931E0222
:102B100080931F0290932002812F2496E4E00C946E
:102B2000F21D0E94DD0300912202109123022091E8
:102B3000240230912502600F711F821F931FC0CFA6
:102B4000EF92FF921F93CF93DF9300D000D00F92AC
:102B5000CDB7DEB77B0190E080E00E94521D182FB8
:102B6000882309F46DC04091030150E041155105DF
:102B700011F041E050E060910401709105016C5E3C
:102B80007D4FCE0105960E947C1E4091100250910F
:102B9000110260911202709113022FB7F894809184
:102BA0005A0290915B02A0915C02B0915D022FBF2E
:102BB000841B950BA60BB70B84369105A105B105B7
:102BC00038F485E192E00E9449029D818917C1F1A4
:102BD00081E090E00E94521D882309F458C0409182
:102BE0000B0150E04530510510F044E050E0609199
:102BF0000C0170910D016C5E7D4FCE0101960E941B
:102C00007C1E85E192E00E9449029D8189133FC0AC
:102C10000E94DD03609310027093110280931202F0
:102C20009093130289819A81AB81BC8180930C02BD
:102C300090930D02A0930E02B0930F0211E00EC00C
:102C40008091150290911602A0911702B09118027E
:102C500089839A83AB83BC831111E4CF80910C02EA
:102C600090910D02A0910E02B0910F02F7018083A6
:102C70009183A283B383812F0F900F900F900F90B9
:102C80000F90DF91CF911F91FF90EF90089510E08A
:102C9000E5CFACE0B0E0EFE4F6E10C94CD1D8E01A1
:102CA0000F5F1F4F88E0D8011D928A95E9F78DE5E7
:102CB000C82E81E0D82EF12CE12CAA24A394B12CAB
:102CC00027E6822E21E0922EF60181916F018F3F3F
:102CD00009F442C0F894E82FE295EF70F0E021A1EA
:102CE0008F70A50102C0440F551F8A95E2F7CA01F3
:102CF000922F982B91A392A18095892382A37894F7
:102D000000C0E1E6F1E0712C31E021912F3F09F4A0
:102D10006BC0A22FA295AF70B0E090968C9190E01E
:102D20002F7002C0959587952A95E2F780FD5CC0CB
:102D3000832F782A330F8E169F0639F7F6013197C5
:102D400080818F3F11F00E94090550EA5A95F1F7F2
:102D5000F801EE0DFF1D70828FEFE81AF80AA4E06B
:102D6000EA16F10409F0B0CF48E050E0B80186E27D
:102D700092E00E946F1E009741F028E0F801A6E261
:102D8000B2E001900D922A95E1F700912F02892B74
:102D900069F181E0809303020E94E90390930202AB
:102DA0008093010280910102909102020E94CE0361
:102DB000059700F110E00C5C1D4F44E050E066E226
:102DC00072E0C8010E946F1EB12C892B51F084E083
:102DD000E6E2F2E0D80101900D928A95E1F7BB247A
:102DE000B3941092030207C080E0A3CF8091030246
:102DF0008111D8CFB12C0E940D0AA82EE0912F028C
:102E0000882309F470C019861A861B861C860E2F2B
:102E100010E00C5C1D4F809121028A3078F540EA69
:102E200055E1BE01675F7F4FC8010E94DA09882320
:102E300009F448C047E355E1BE01675F7F4FC80111
:102E40000E94DA098823F1F11092210280912E026A
:102E500090E044E050E0BE01675F7F4F8C5C9D4F87
:102E60000E946F1E21E020930A02892BE9F4A12C15
:102E70008A2D8B292C96EDE00C94E91D809104029B
:102E8000909105020E94CE03843F914040F68091CC
:102E90000A02882361F3FE01399684E0DF011D9266
:102EA0008A95E9F710920A02E0912E02F0E0EC5CBC
:102EB000FD4F89859A85AB85BC8580839183A283EC
:102EC000B383D6CF809121028F3F31F08F5F809303
:102ED00021028A3008F4BACF0E94E90390930502D8
:102EE00080930402D4CFF0E0EC5CFD4F84E0A5E1D8
:102EF000B2E001900D928A95E1F785E192E00E949F
:102F0000490280931402C0901902D0901A02E090F6
:102F10001B02F0901C028091060290910702A09182
:102F20000802B0910902C816D906EA06FB0609F4A0
:102F30009FCFC0920602D0920702E0920802F09260
:102F400009020E940D0A811193CF0E94DD03C61A67
:102F5000D70AE80AF90AC0922202D0922302E0922C
:102F60002402F092250284CF1F920F920FB60F9287
:102F700011242F933F934F935F936F937F938F937E
:102F80009F93AF93BF93CF93DF93EF93FF93D09132
:102F9000E900DF708091EC00C82FC17080FDC0E8AF
:102FA0001092E9008091F000877F8093F000789480
:102FB0000E94F70B1092E9008091F00088608093E6
:102FC000F000CD2BCF70C093E900FF91EF91DF911E
:102FD000CF91BF91AF919F918F917F916F915F91B1
:102FE0004F913F912F910F900FBE0F901F9018950A
:102FF0001F920F920FB60F9211242F933F934F936E
:103000005F936F937F938F939F93AF93BF93EF9350
:10301000FF938091E10082FF09C08091E20082FF6E
:1030200005C08091E1008B7F8093E1008091DA0000
:1030300080FF24C08091D80080FF20C08091DA00FA
:103040008E7F8093DA008091D90080FF9DC080E15F
:1030500089BD82E189BD09B400FEFDCF81E0809386
:10306000850280916002811109C00E9460020E9465
:1030700001038091E20084608093E2008091E1008E
:1030800080FF17C08091E20080FF13C08091E200B2
:103090008E7F8093E2008091E20080618093E20065
:1030A0008091D80080628093D80019BC85E080931D
:1030B00085028091E10084FF2BC08091E20084FFB3
:1030C00027C080E189BD82E189BD89B5982F9170C3
:1030D00080FFFBCF8091D8008F7D8093D8008091B6
:1030E000E1008F7E8093E1008091E2008F7E8093EB
:1030F000E2008091E20081608093E200809186028C
:10310000882309F447C084E080938502809185027A
:103110008091E10083FF27C08091E20083FF23C0FC
:103120008091E100877F8093E10082E080938502B7
:10313000109286028091E1008E7F8093E100809161
:10314000E2008E7F8093E2008091E20080618093B4
:10315000E20042E060E080E00E94CF028091F00057
:1031600088608093F000FF91EF91BF91AF919F91A4
:103170008F917F916F915F914F913F912F910F9020
:103180000FBE0F901F90189519BC109285021092D7
:10319000600274CF8091E30087FD93E090938502F5
:1031A000B5CF78941F921FB61F9211248F939F93CF
:1031B000AF93BF9380915A0290915B02A0915C0201
:1031C000B0915D020196A11DB11D80935A029093AA
:1031D0005B02A0935C02B0935D02BF91AF919F919F
:1031E0008F911F901FBE1F9018951F921FB61F92A0
:1031F00011248F939F93AF93BF93809159028111B4
:1032000013C080915A0290915B02A0915C02B09130
:103210005D024196A11DB11D80935A0290935B02FD
:10322000A0935C02B0935D02BF91AF919F918F918B
:103230001F901FBE1F901895CDB7DEB72B970FB606
:10324000F894DEBF0FBECDBF85B7806885BF85B758
:10325000806885BF84B7877F84BF0FB6F894A89530
:1032600080916000886180936000109260000FBEC2
:1032700080E890E00FB6F89480936100909361002D
:103280000FBE87E095E090936901809368010E94EA
:1032900060020E9401038091E20084608093E2005A
:1032A0007894809185028823A1F01091E9001F7025
:1032B0009091EC00892F817090FD80E8182B10927E
:1032C000E9008091E80083FD0E94F70B1F701093C6
:1032D000E90082E084BD93E095BD9AEF97BD8093AD
:1032E0006E00109222021092230210922402109279
:1032F00025020E940D0A809318010E940D0A811177
:103300000E94661C809118018091180194E081113F
:1033100090E090932F0284E0891B80932E0284E931
:103320000E94090586E60E94090587E90E940905B1
:1033300086EC0E94090501E611E047E6E42E41E033
:10334000F42ED8018D918D018F3F11F00E94090557
:10335000E016F106B1F788E0E4E3F2E0DF01282FA0
:103360001D922A95E9F7E6E2F2E0DF011D928A95C7
:10337000E9F790E080E00E94351E873E9E4F09F4F9
:103380005EC067EE7EEF90E080E00E94591E60E034
:1033900082E090E00E943B1E60E083E090E00E94AB
:1033A0003B1E109231021092300260E074E184E022
:1033B00090E00E94591E60E086E090E00E943B1E73
:1033C0006FEF87E090E00E943B1E40E050E0BA01C2
:1033D00088E090E00E944D1E60E08DE090E00E9449
:1033E0003B1E40E050E0BA0188E190E00E944D1E93
:1033F00060E087E190E00E943B1E40E050E0BA01AF
:103400008CE190E00E944D1E70E060E080E290E070
:103410000E94591E40E050E0BA0188E190E00E940D
:103420004D1E40E050E0BA018FE090E00E944D1E3A
:1034300040E050E0BA0183E190E00E944D1E82E03E
:1034400090E00E942D1E80933C0284E090E00E9458
:10345000351E90935F0280935E020E944916EFEF43
:10346000F6E721E0E150F0402040E1F700C0000025
:103470000E9449160E940D0AE4E08111E0E0F0E0AC
:10348000EC5CFD4F808181FF08C06FEF7FEF90E023
:1034900080E00E94591E0E94BD0383E090E00E94DC
:1034A0002D1E90E00E9466080E940D0A811102C044
:1034B0000E94691C89E191E0909356028093550225
:1034C00028E1C22ED12C3CE3A32E32E0B32E95E4AA
:1034D000892E92E0992E8091850200E112E18530DB
:1034E00009F47EC00E9449160DE312E084E3E82E41
:1034F00082E0F82ED701F80191918D918E169F06EA
:1035000009F478C09817C1F30E940D0A282E712C77
:10351000D7016D907D01F80131908F01361429F1AA
:10352000512C442443943624832D8421B1F022204D
:10353000A1F05F82788691E0862D842109F490E0E5
:1035400099870E94E9038160782F9B878A874F8142
:10355000588569858B850E948B145394440CF6E042
:103560005F12E2CFF80131976082739428E0721203
:10357000CFCF0E94DD0342C080918502843011F1DB
:103580001092590240E40FB6F894A895C0926000DA
:103590000FBE4093600083B7817F846083BF83B791
:1035A000816083BF7894889583B78E7F83BF0FB681
:1035B000F894A895809160008861809360001092D3
:1035C00060000FBE80918402882351F00E9449164A
:1035D000E4E3F2E081918111FFC0AE16BF06D1F79E
:1035E00080918502853009F4C7CF0E94C80B0E94E4
:1035F000300A78CF981388CF0E940F150E940D0AC9
:1036000086E0EDE4F2E0DE01119601900D928A95DC
:10361000E1F710924F021092500210925102109254
:1036200052028B819C81892B09F44AC080914B0204
:1036300090914C020E94CE039C01909146029923E6
:1036400009F4E5C025313105D8F19F3F19F09F5F9E
:10365000909346021B81112359F00E94E7049FEFCB
:1036600011160CF491E0899F802D112480934F0254
:103670001C81112359F00E94E7049FEF11160CF4EE
:1036800091E0899F802D11248093500230914F0248
:103690003323B1F020915002222391F045EB340303
:1036A000C0011124992309F487C090934F0245EB80
:1036B000240390011124332309F482C03093500273
:1036C0008D819E81892B09F449C080914902909196
:1036D0004A020E94CE039C0190914702992309F46B
:1036E00091C021353105D0F19F3F19F09F5F909334
:1036F00047021D81112359F00E94C5049FEF111646
:103700000CF491E0899F802D1124809351021E8139
:10371000112359F00E94C5049FEF11160CF491E09B
:10372000899F802D112480935202309151023323BE
:10373000A9F020915202222389F045EB3403C00105
:103740001124992309F440C09093510245EB2403BE
:10375000900111243323E1F13093520246E050E00E
:10376000BE016F5F7F4F8DE492E00E946F1E892B38
:1037700061F480914F0290915002892B90915102F7
:10378000892B90915202892B11F00E949E0486E0B1
:10379000FE013196ADE4B2E001900D928A95E1F719
:1037A0000E94300A90914502891709F494CE8093C3
:1037B00045020E94DD038BCE81E080934F0277CFDC
:1037C00081E0809350027CCF81E080935102BECF94
:1037D00081E080935202C2CF09BD19BD09B400FE39
:1037E000FDCF8091D8008F7D8093D8008091E0003C
:1037F00082608093E0008091E00081FDFCCF0E9418
:10380000C80BEECE2B30310508F070CFA7CF2B3090
:10381000310508F01CCF54CF8EE14A9B02C0815085
:10382000E1F74A9BFECF08955A9880E28A95F1F716
:103830005A9A0895FC013BE03A95F1F798E020E0B0
:1038400080E031E040E14A95F1F7880F4A9B02C0E1
:103850008160232742E04A95F1F7000040E14A9554
:10386000F1F7915079F790E19A95F1F799B132E03B
:103870003A95F1F7000040E14A95F1F792FB99275C
:1038800090F992272081920F90830895A1E0B0E0F3
:10389000ECE4FCE10C94D41D19828C017C01E60E51
:1038A000F11C0E151F0541F481E09981911180E012
:1038B0002196E6E00C94F01D0E940C1CCE010196AE
:1038C0000E941A1CF80181938F01EBCF529A5A9AE9
:1038D000089552985A9AEA9AE9E6F0E080818F7C3E
:1038E000808308956150770B91E001C0990F6A952C
:1038F000EAF720E031E0911108C0222391F05A9AB2
:1039000080E28A95F1F75A980895492F482339F0B3
:103910005A9A232740E24A95F1F79695ECCF5A98A8
:10392000F9CF5A98EDCFFF920F931F93CF93DF9368
:10393000EC018C01060F111DC017D10729F4CDB77A
:10394000DEB7E5E00C94F11DF9900E94141C68E0CC
:103950008F2D0E94721CF0CF1F920F920FB60F9204
:1039600011240F931F932F933F934F935F936F9364
:103970007F938F939F93AF93BF93EF93FF93CF93D7
:10398000DF930F92CDB7DEB719820E940C1CCE01D7
:1039900001960E941A1C082F069506950695282F59
:1039A00022952570902F9570290F922F9370269550
:1039B0002695920F982797708981982B09F05CC003
:1039C000043008F059C080E18A95F1F75A9A529A6A
:1039D00082E08A95F1F700C05A9888E0089F80013C
:1039E0001124D801A050BF4F1696ED91FC91179766
:1039F0003097A9F060915B0170915C0114962D9154
:103A00003C911597260F371F11968D919C91129717
:103A1000680F791F13964C9113978C910995F801B3
:103A2000E050FF4F6381662351F020915B0130919C
:103A30005C0184819581820F931F0E94931C0E94D8
:103A4000141C80E18A95F1F75A9852985A9A80E1AD
:103A50008A95F1F7F801E050FF4F6081662351F03D
:103A600020915B0130915C0181819281820F931FD3
:103A70000E94461C0E940C1C0F90DF91CF91FF9179
:103A8000EF91BF91AF919F918F917F916F915F91D6
:103A90004F913F912F911F910F910F900FBE0F905B
:103AA0001F9018950F931F93CF93DF93EC0104970A
:103AB0000CF04CC0F894529A5A9885E08A95F1F728
:103AC00000009C2F969595708C2F8570980F892FEC
:103AD00083709695969523E0CC0FDD1F2A95E1F72C
:103AE000980F8E01092B0E94141C00C068E0802FE3
:103AF0000E94721C80E18A95F1F752985A9A4A9B6B
:103B00001EC087E090E04A991CC0FE01E050FF4FC4
:103B100063816623F9F020915B0130915C0184811F
:103B20009581820F931F0E94461C811113C0529AE7
:103B30005A9A7894DF91CF911F910F91089500C008
:103B4000DECF019729F4529A5A9A789480E0F2CF06
:103B500000C0D9CF0E940C1C80E28A95F1F75A98D8
:103B6000529A80E18A95F1F7C050DF4F6881662351
:103B700051F020915B0130915C0189819A81820F23
:103B8000931F0E94931C0E94141C789481E0D2CF52
:103B90002F923F924F925F926F927F928F929F925D
:103BA000AF92BF92CF92DF92EF92FF920F931F934B
:103BB000CF93DF93CDB7DEB7CA1BDB0B0FB6F894FC
:103BC000DEBF0FBECDBF09942A88398848885F843C
:103BD0006E847D848C849B84AA84B984C884DF80AD
:103BE000EE80FD800C811B81AA81B981CE0FD11D91
:103BF0000FB6F894DEBF0FBECDBFED01089597FB61
:103C0000072E16F4009407D077FD09D00E94191EE4
:103C100007FC05D03EF4909581959F4F08957095CF
:103C200061957F4F0895EE0FFF1F0590F491E02DF1
:103C30000994AA1BBB1B51E107C0AA1FBB1FA617F3
:103C4000B70710F0A61BB70B881F991F5A95A9F745
:103C500080959095BC01CD010895F999FECF92BD54
:103C600081BDF89A992780B50895A8E1B0E042E0B7
:103C700050E00C94611E262FF999FECF92BD81BDB4
:103C8000F89A019700B4021639F01FBA20BD0FB69A
:103C9000F894FA9AF99A0FBE08950396272F0E9476
:103CA0003C1E0E943B1E252F0E943C1E242F0C947C
:103CB0003C1E0196272F0E943C1E0C943B1EDC01EB
:103CC000CB01FC01F999FECF06C0F2BDE1BDF89A27
:103CD000319600B40D9241505040B8F70895FB0161
:103CE000DC0104C08D910190801921F441505040B5
:103CF000C8F7881B990B0895FB01DC0102C00190F5
:103D00000D9241505040D8F70895F894FFCFD60C4B
:103D1000FE0C960EFE0C960E310D520D960E4F0EA9
:103D20005C0E060F0A0FEC0E020F0E0F120F160F8D
:103D3000710FE60F790F430F470F7D0F4B0F810F68
:103D40008D0F570FDF0F5B0F910F5F0F950FBD0F9B
:103D5000630F990FC40F690F9F0FA70F4F0F850FA8
:103D6000530F890F6D0FA30FB30FCD0FDD0F3D0F55
:103D7000750FED0F67106710A010A01047116111AB
:0C3D8000CE10CE106611EE11FD11FD11E9
:103D8C000000000100000000000000040100000021
:103D9C00040500000000000001BA03B609AF09A831
:103DAC000901818283E200E900EA00B500B600B7A0
:103DBC0000CD008301CC008A0192019401210223E1
:103DCC000224022502260227022A02B300B4006F45
:103DDC000070009F01CB019F02A002140294669711
:083DEC00C6F4F5F6F7313300CF
:00000001FF
